:1000000090FBFF1F5D0B0000D50B0000D50B00001F
:1000100000000000000000000000000000000000E0
:10002000000000000000000000000000D50B0000F0
:100030000000000000000000D50B0000C90B00000C
:10004000D50B0000D50B0000D50B0000D50B000030
:1000500000000000D50B0000D50B0000D50B000000
:10006000D50B0000D50B0000D50B0000D50B000010
:10007000D50B0000D50B0000D50B0000D50B000000
:10008000D50B0000D50B0000D50B0000D50B0000F0
:10009000D50B0000D50B0000D50B000000000000C0
:1000A000D50B0000D50B0000D50B0000D50B0000D0
:1000B000D50B000000000000D50B0000D50B0000A0
:10040000FFFFFFFFFFFFFFFFFFFFFFFFFEFFFFFFFD
:1004100090B583B000AF78607B68202B27DC154A4D
:100420001449C0235B00C9587868134B034004D5B6
:10043000013B20204042034301330120041C9C4027
:10044000231C1943C0235B00D1500A4A094B196889
:100450007868094B034004D5013B20204042034308
:1004600001330120041C9C40231C0B431360BD4638
:1004700003B090BD00E100E01F00008080B582B0B5
:1004800000AF021CFB1D1A70FB1D1B78012B0DD049
:10049000022B1FD0002B32D11F4A1F491F4BCB58B4
:1004A000A021C90219431D4BD15028E000F042F8A9
:1004B000194A1949194BC958194B1940174BD150B2
:1004C000154A1549154BCB588021C9021943134BC6
:1004D000D15014E0104A1049104BC958114B194023
:1004E0000E4BD1500C4A0C490F4BCB588021890040
:1004F00019430D4BD1500D4B802292005A61064A90
:1005000005490B4BCB588021C9021943084BD150E8
:10051000BD4602B080BDC04600700440041000001B
:10052000FFFFFEFFFFFFFBFF3810000000900440BC
:100530003410000080B500AFBD4680BD80B582B0EC
:1005400000AF78600A1CFB1C1A70FB1C1B78013B77
:100550007A68D2180A4B1A600A4B7A681A600A4BFA
:10056000FA1C12781A70094B7A681A60084B7A687C
:100570001A60084B00221A70BD4602B080BDC0460A
:100580000CF2FF1F14F2FF1F1DF2FF1F18F2FF1FD6
:1005900010F2FF1F1CF2FF1F80B500AF3C4B1A6822
:1005A0003C4B1A603C4B00221A700020FFF766FF9C
:1005B0001820FFF72DFF394A384986235B00CB5CB2
:1005C000DBB2802149420B43D9B286235B00D15470
:1005D000C046324A86235B00D35CDBB2DBB25BB23F
:1005E000002BF6DB2D4A2E4B1B0AD9B29C23D1548B
:1005F0002A4A2B4B1B0CD9B2B023D154274A284B83
:100600001B0ED9B2B423D154244A24498023CB5C95
:10061000DBB202210B43D9B28023D1541F4A1F49B8
:100620008423CB5CDBB201210B43D9B28423D154A8
:100630001A4A1A4980235B00CB5CD9B23F230B4096
:10064000D9B280235B00D154144A144986235B003D
:10065000CB5CDBB240210B43D9B286235B00D15483
:100660000E4A0E499423CB5CDBB201210B43D9B275
:100670009423D154094A094984235B00CB5CDBB243
:1006800010210B43D9B284235B00D154BD4680BDF9
:1006900000F0FF1F44F4FF1F7CF5FF1F0020074000
:1006A00000F6FF1F80B586B000AF3960FB1D011C4E
:1006B0001970BB1D1A703B1C103300221A803B1CA2
:1006C0000F33FA1D12781A70FB1D1B78002B04D013
:1006D000FB1DFA1D127892001A70FB1DFA1D12788C
:1006E00002321A70FB1D1A785A4B9200D3587B6164
:1006F000594B1B781A1C0123134024D0574B3A68DE
:100700001A60574BBA1D12781A70564B1B68DB796A
:100710001B0299B2534B1B689B791A1C3B1C10336C
:100720008A181A80BB1D1B789BB23A1C10321288A3
:100730009A4208D2FB1D1B78022B04D1494B1B683F
:100740009A79474B1A70FB1D1B78474AD25C444B81
:100750001B789A4218D2FB1D1A783B1C133342496E
:100760008A5C1A703E4B1A78FB1D1B783E49CB5CA5
:10077000D31ADAB23A4B1A70374B1B7801229343E3
:10078000DAB2354B1A700EE03B1C1333344A127840
:100790001A70334B00221A702F4B1B78012213431F
:1007A000DAB22D4B1A70FB1D1B783A1C13321278EB
:1007B00092B22E49DB00CB185A8009E07B695A1CA3
:1007C0007A61264A1268501C2449086012781A700F
:1007D0003B1C13331B783A1C1332591E1170002B2B
:1007E000ECD1234B1B781A1C3B1C0F331B78DA40CF
:1007F0000123134016D0FB1D1A781C4BD200882110
:10080000D1543B1C0F331B780122111C99400B1C47
:10081000DBB2DB43DBB2164A12781340DAB2144B78
:100820001A7013E0FB1D1A78104BD200C821D15466
:100830003B1C0F331B780122111C99400B1CDAB2B0
:100840000B4B1B781343DAB2094B1A70BD4606B046
:1008500080BDC04600F0FF1F38F5FF1F80F6FF1F68
:1008600020F4FF1F44F4FF1F040D000000F6FF1FDB
:10087000D0F4FF1F80B584B000AF021C3960FB1DAF
:100880001A70FB1D1A78FB1D01321A70FB1D1A78B5
:10089000144B9200D358FB60FB1D1B78124ADB00FF
:1008A000D3185A883B1C0B331A70FB1D3A1C0B32B1
:1008B00012781A7007E03B685A1C3A60FA68511CBB
:1008C000F96012781A703B1C0B331B783A1C0B3200
:1008D000591E1170002BEED1FB1D1B78181CBD4654
:1008E00004B080BD00F0FF1F00F6FF1F80B584B08C
:1008F00000AF021CFB1D1A70FB1D1B789B000E4AEB
:10090000DB00D3185B881B0A9BB2DAB2FB1D1B7895
:100910009B000949DB00CB185B881B02DBB2134349
:10092000DAB23B1C0F331A703B1C0F331B789BB29F
:10093000181CBD4604B080BD00F6FF1F80B500AF97
:100940000F4B00221A70FFF727FE0E4B0D4AD2699B
:10095000C02189000A43DA610B4B962292011A608A
:10096000094B00221A71084B00225A71064B0822CB
:100970009A71064B181C8021FFF7E0FDBD4680BD33
:1009800000F2FF1F00B0044004F7FF1F0CF7FF1F29
:1009900080B500AF2C4B1B78DBB21A1C022313402E
:1009A00019D02A4A29499423CB5CDBB202210B439C
:1009B000D9B29423D154264B00221A70254B012220
:1009C0001A70FFF7BBFF204B1B78DBB20222934368
:1009D000DAB21D4B1A701E4B1B78202B13D0222B22
:1009E0002AD0002B2ED1C0461B4B1B78012BFBD1EC
:1009F000184B1B78002B02D0164B00221A70144B98
:100A000000221A701EE0154B1B781A1C012313409C
:100A100011D0124B1B7801229343DAB20F4B1A709C
:100A20000F4B0020191CFFF725FF0020002100229A
:100A3000FFF738FE06E005E0002000210022FFF766
:100A400031FEC046BD4680BD01F2FF1F00200740B9
:100A500000F2FF1F40F0FF1F7CF5FF1F14F5FF1F82
:100A600004F7FF1F80B500AF164B164A526880216D
:100A700049040A435A60134B124A1268802109063E
:100A80000A431A600F4B0F4A52688021C9040A4377
:100A90005A600C4B0B4A12688021C9050A431A6040
:100AA000084B084A5268802189040A435A60054B62
:100AB000044A1268802189050A431A60FFF73EFF45
:100AC000BD4680BD0070044080B500AFFFF760FFF9
:100AD0000F4B1B781A1C0823134017D00320FFF775
:100AE00005FF0C4A62232021D1520A4A602380214B
:100AF000D154074B1B7808229343DAB2044B1A7087
:100B0000054B0220191C0122FFF7CCFDBD4680BD1C
:100B100014F5FF1F00F6FF1FC4F6FF1F80B582B05B
:100B200000AF78607A680B4B9A4201D901230CE040
:100B3000094B7A681202120A013A5A60064B0022E7
:100B40009A60054B07221A600023181CBD4602B0AC
:100B500080BDC046FFFFFF0010E000E080B582B01E
:100B600000AF00F087F8124B7B60124B3B6007E050
:100B70003B681A1D3A607A68111D796012681A6024
:100B80003A680D4B9A42F3D30C4B3B6004E03B6850
:100B90001A1D3A6000221A603A68094B9A42F6D34D
:100BA000084B181CFFF7BAFF00F058F8FEE7C046E4
:100BB000140D000000F0FF1F44F0FF1F00F2FF1FA4
:100BC0008CF7FF1F80BB000080B500AF00F084F8F9
:100BD000BD4680BD80B500AFFEE7C04680B500AF22
:100BE0000E4A88235B010021D1500C4A0B490C4B63
:100BF000CB588021C9001943094BD150094B8022A1
:100C000052001A60084B01229A60074B064A52694B
:100C100001210A435A61BD4680BDC04600700440B0
:100C20003810000000A0044040F00F4080B500AF35
:100C300000F05EF8021C074B1B68D31AFA2B07D989
:100C400000F056F8021C034B1A60034B0122DA60D5
:100C5000BD4680BD04F2FF1F40F00F4080B500AFDD
:100C6000FFF7BCFFFFF7FEFEFFF7E0FFFFF72CFFEB
:100C7000FAE7C04680B500AF124B124AD278D1B223
:100C80001F220A40D2B2602149420A43D2B2DA702E
:100C90000D4A0D490D4BCB58E0218B4340211943A0
:100CA0000A4BD150084A0849094BCB588021090109
:100CB0001943074BD150074BA822D200DA60BD463A
:100CC00080BDC04600400640007004400410000093
:100CD0003810000000B0044080B500AF034B1B6823
:100CE0005A1C024B1A60BD4680BDC04608F2FF1F69
:100CF00080B500AF024B1B68181CBD4680BDC046C6
:100D000008F2FF1F2020202020202020202020204B
:040D1000202020205F
:100D1400B0F4FF1F5CF5FF1F3CF5FF1F84F6FF1FB7
:100D240048F4FF1F24F4FF1F90F4FF1FF4F4FF1F87
:100D3400E4F6FF1F18F5FF1F6CF4FF1F80F5FF1F7B
:100D4400C4F6FF1F00F4FF1FA4F6FF1FD4F4FF1F17
:040D5400010000009A
:0400000300000410E5
:00000001FF
