:1000000020F4FF1F79040000F1040000F104000057
:1000100000000000000000000000000000000000E0
:10002000000000000000000000000000F1040000DB
:100030000000000000000000F1040000E5040000E2
:10004000F1040000F1040000F1040000F1040000DC
:1000500000000000F1040000F1040000F1040000C1
:10006000F1040000F1040000F1040000F1040000BC
:10007000F1040000F1040000F1040000F1040000AC
:10008000F1040000F1040000F1040000F10400009C
:10009000F1040000F1040000F10400000000000081
:1000A000F1040000F1040000F1040000F10400007C
:1000B000F104000000000000F1040000F104000061
:10040000FFFFFFFFFFFFFFFFFFFFFFFFFEFFFFFFFD
:1004100080B584B000AF786000F08AFA031CFB60FE
:10042000C04600F085FA021CFB68D21A7B689A422B
:10043000F7D3BD4604B080BD80B582B000AF786010
:100440007A680B4B9A4201D901230CE0094B7A6878
:100450001202120A013A5A60064B00229A60054BBA
:1004600007221A600023181CBD4602B080BDC0469A
:10047000FFFFFF0010E000E080B582B000AF00F0A9
:1004800019FA124B7B60124B3B6007E03B681A1D68
:100490003A607A68111D796012681A603A680D4BEB
:1004A0009A42F3D30C4B3B6004E03B681A1D3A6060
:1004B00000221A603A68094B9A42F6D3084B181C7E
:1004C000FFF7BAFF00F0EAF9FEE7C0464409000072
:1004D00000F0FF1F04F0FF1F04F0FF1F1CF0FF1FC0
:1004E00080BB000080B500AF00F016FABD4680BDAD
:1004F00080B500AFFEE7C04680B500AF0E4A882346
:100500005B010021D1500C4A0B490C4BCB58802188
:10051000C9001943094BD150094B802252001A607F
:10052000084B01229A60074B064A526901210A438F
:100530005A61BD4680BDC0460070044038100000BE
:1005400000A0044040F00F4080B582B000AF78605A
:100550003960C0461E4A84235B00D25880239B0426
:100560001340F7D11B4B802252009A611A4B402254
:100570009A600120FFF74CFF154A84235B0080211D
:100580004904D150124A796880235B00D150104A47
:100590003B681B02190A84235B00D1500C4A0C49AA
:1005A00086235B00CB588021C905194386235B0055
:1005B000D150084B802292009A61084B074A9278EA
:1005C000D2B220210A43D2B29A70BD4602B080BD99
:1005D0000080004000B0044080F00F400060074001
:1005E00080B500AF374A3749374BCB5880210901D6
:1005F0001943354BD150354B802292001A61334B51
:10060000802292005A61314B802292009A61304BD5
:100610002F4A526940210A435A612A4A29492D4BDF
:10062000CB588021C90319432A4BD1502A4B2A4A5F
:10063000D278D2B21A210A43D2B2DA70264B264AB5
:100640009278D2B210210A43D2B29A70224B212260
:100650005A70214B204AD278D2B240210A43D2B2FA
:10066000DA70184A17491D4BCB58022119431B4B0E
:10067000D150144A134982235B01CB588021490091
:10068000194382235B01D150154B154A1278D1B220
:1006900040220A40D2B21A70114B114A1278D2B2DB
:1006A0006F2149420A43D2B21A700E4A82235B007C
:1006B0000D49D1500B4A86235B000C49D150BD46F1
:1006C00080BDC046007004403810000000B00440F7
:1006D00080F00F4034100000006007403C10000024
:1006E0000010024000800040066007408000526019
:1006F00080B588B000AFF860B9607A600023BB6154
:1007000057E000237B61FA68BB69D2183B1C1E339B
:1007100012781A703B1C1F3300221A7021E03B1C18
:100720001E331B785BB2002B05DA7B69C022D20432
:1007300013437B6104E07B698022D20413437B6115
:100740003A1C1E323B1C1E331B78DB1813707B696E
:10075000DB087B613B1C1F331A783B1C1F330132C3
:100760001A703B1C1F331B78072BD8D9BA69131C8E
:100770005B009B18BA68D3183A1C163212781A70AC
:10078000BA69131C5B009B180133BA68D3183A1C72
:10079000153212781A70BA69131C5B009B18023369
:1007A000BA68D3183A1C143212781A70BB69013334
:1007B000BB61BA697B689A42A3D3BD4608B080BDCD
:1007C00080B500AF1B4A1C4B101C191C0322FFF7FD
:1007D0008FFF1A4B1B780133172B04DC174B1B7848
:1007E0000133DBB200E00023144A1370134B1B7873
:1007F000FF22101C9840031C1A1C0E4B1A600F4B52
:100800001B78102B0FD90B4B1A680C4B1B78182137
:10081000CB1AFF21081C1841031C191CFF230B4095
:100820001A43044B1A60044B181C0921FFF78CFE75
:10083000BD4680BD00F0FF1F04F0FF1F0DF0FF1F3D
:1008400080B500AF00F074F8021C074B1B68D31A88
:10085000FA2B07D900F06CF8021C034B1A60034B0B
:100860000122DA60BD4680BD10F0FF1F40F00F404E
:1008700080B500AF00F05CF8021C074B1B68D31A70
:10088000322B06D900F054F8021C034B1A60FFF714
:1008900097FFBD4680BDC04614F0FF1F80B500AF76
:1008A000FFF72AFEFFF79CFEFFF7CAFFFFF7E0FF06
:1008B000FAE7C04680B500AF124B124AD278D1B2E7
:1008C0001F220A40D2B2602149420A43D2B2DA70F2
:1008D0000D4A0D490D4BCB58E0218B434021194364
:1008E0000A4BD150084A0849094BCB5880210901CD
:1008F0001943074BD150074BA822D200DA60BD46FE
:1009000080BDC04600400640007004400410000056
:100910003810000000B0044080B500AF034B1B68E6
:100920005A1C024B1A60BD4680BDC04618F0FF1F1E
:1009300080B500AF024B1B68181CBD4680BDC04689
:0409400018F0FF1F8D
:04094400FF000000B0
:0400000300000410E5
:00000001FF
