:10000000900B002079120000F9120000F912000094
:1000100000000000000000000000000000000000E0
:10002000000000000000000000000000F9120000C5
:100030000000000000000000F9120000E1120000C2
:10004000F9120000F9120000F9120000F912000084
:1000500000000000F9120000F9120000F91200007F
:10006000F9120000F9120000F9120000F912000064
:10007000F9120000F9120000F9120000F912000054
:10008000F9120000F9120000F9120000F912000044
:10009000F9120000F9120000F9120000000000003F
:1000A000ED120000F9120000F9120000F912000030
:1000B000F912000000000000F9120000F91200001F
:10040000FFFFFFFFFFFFFFFFFFFFFFFFFEFFFFFFFD
:1004100090B583B000AF78607B68202B27DC154A4D
:100420001449C0235B00C9587868134B034004D5B6
:10043000013B20204042034301330120041C9C4027
:10044000231C1943C0235B00D1500A4A094B196889
:100450007868094B034004D5013B20204042034308
:1004600001330120041C9C40231C0B431360BD4638
:1004700003B090BD00E100E01F00008080B582B0B5
:1004800000AF021CFB1D1A70FB1D1B78012B0DD049
:10049000022B1FD0002B32D11F4A1F491F4BCB58B4
:1004A000A021C90219431D4BD15028E000F042F8A9
:1004B000194A1949194BC958194B1940174BD150B2
:1004C000154A1549154BCB588021C9021943134BC6
:1004D000D15014E0104A1049104BC958114B194023
:1004E0000E4BD1500C4A0C490F4BCB588021890040
:1004F00019430D4BD1500D4B802292005A61064A90
:1005000005490B4BCB588021C9021943084BD150E8
:10051000BD4602B080BDC04600700440041000001B
:10052000FFFFFEFFFFFFFBFF3810000000900440BC
:100530003410000080B500AFBD4680BD80B582B0EC
:1005400000AF78600A1CFB1C1A70FB1C1B78013B77
:100550007A68D2180A4B1A600A4B7A681A600A4BFA
:10056000FA1C12781A70094B7A681A60084B7A687C
:100570001A60084B00221A70BD4602B080BDC0460A
:100580000C030020140300201D030020180300208A
:10059000100300201C03002080B500AF3C4B1A68FC
:1005A0003C4B1A603C4B00221A700120FFF766FF9B
:1005B0001820FFF72DFF394A384986235B00CB5CB2
:1005C000DBB2802149420B43D9B286235B00D15470
:1005D000C046324A86235B00D35CDBB2DBB25BB23F
:1005E000002BF6DB2D4A2E4B1B0AD9B29C23D1548B
:1005F0002A4A2B4B1B0CD9B2B023D154274A284B83
:100600001B0ED9B2B423D154244A24498023CB5C95
:10061000DBB202210B43D9B28023D1541F4A1F49B8
:100620008423CB5CDBB201210B43D9B28423D154A8
:100630001A4A1A4980235B00CB5CD9B23F230B4096
:10064000D9B280235B00D154144A144986235B003D
:10065000CB5CDBB240210B43D9B286235B00D15483
:100660000E4A0E499423CB5CDBB201210B43D9B275
:100670009423D154094A094984235B00CB5CDBB243
:1006800010210B43D9B284235B00D154BD4680BDF9
:1006900000000020440400207C05002000200740CA
:1006A0000006002080B586B000AF3960FB1D011C3C
:1006B0001970BB1D1A703B1C103300221A803B1CA2
:1006C0000F33FA1D12781A70FB1D1B78002B04D013
:1006D000FB1DFA1D127892001A70FB1DFA1D12788C
:1006E00002321A70FB1D1A785A4B9200D3587B6164
:1006F000594B1B781A1C0123134024D0574B3A68DE
:100700001A60574BBA1D12781A70564B1B68DB796A
:100710001B0299B2534B1B689B791A1C3B1C10336C
:100720008A181A80BB1D1B789BB23A1C10321288A3
:100730009A4208D2FB1D1B78022B04D1494B1B683F
:100740009A79474B1A70FB1D1B78474AD25C444B81
:100750001B789A4218D2FB1D1A783B1C133342496E
:100760008A5C1A703E4B1A78FB1D1B783E49CB5CA5
:10077000D31ADAB23A4B1A70374B1B7801229343E3
:10078000DAB2354B1A700EE03B1C1333344A127840
:100790001A70334B00221A702F4B1B78012213431F
:1007A000DAB22D4B1A70FB1D1B783A1C13321278EB
:1007B00092B22E49DB00CB185A8009E07B695A1CA3
:1007C0007A61264A1268501C2449086012781A700F
:1007D0003B1C13331B783A1C1332591E1170002B2B
:1007E000ECD1234B1B781A1C3B1C0F331B78DA40CF
:1007F0000123134016D0FB1D1A781C4BD200882110
:10080000D1543B1C0F331B780122111C99400B1C47
:10081000DBB2DB43DBB2164A12781340DAB2144B78
:100820001A7013E0FB1D1A78104BD200C821D15466
:100830003B1C0F331B780122111C99400B1CDAB2B0
:100840000B4B1B781343DAB2094B1A70BD4606B046
:1008500080BDC04600000020380500208006002032
:100860002004002044040020801E00000006002018
:10087000D004002080B584B000AF021C3960FB1D9D
:100880001A70FB1D1A78FB1D01321A70FB1D1A78B5
:10089000144B9200D358FB60FB1D1B78124ADB00FF
:1008A000D3185A883B1C0B331A70FB1D3A1C0B32B1
:1008B00012781A7007E03B685A1C3A60FA68511CBB
:1008C000F96012781A703B1C0B331B783A1C0B3200
:1008D000591E1170002BEED1FB1D1B78181CBD4654
:1008E00004B080BD000000200006002080B584B068
:1008F00000AF021CFB1D1A70FB1D1B789B000E4AEB
:10090000DB00D3185B881B0A9BB2DAB2FB1D1B7895
:100910009B000949DB00CB185B881B02DBB2134349
:10092000DAB23B1C0F331A703B1C0F331B789BB29F
:10093000181CBD4604B080BD0006002080B500AF85
:100940001C4AC4230521D1541A4AC8230521D15475
:10095000184ACC230921D154164AD0230121D1545D
:10096000144AD4230121D154124AD8230121D1544D
:10097000114A30230021D1540F4B00225A860F4ACE
:100980000D4B5A630C4A50230021D1540A4A52237A
:100990000021D1520A4A084B5A65074A6023802138
:1009A000D154054A6223FF21D152064A024B5A66AE
:1009B000BD4680BD002007400006002090040020B6
:1009C0006C040020C406002080B500AF3C4B1B68BF
:1009D0005B78092B6ED89A003A4BD3181B689F4658
:1009E000002000210022FFF75DFE374B03221A7022
:1009F00063E0334B1B68DB78022B0AD0032B0FD04C
:100A0000012B22D1314B0020191C1222FFF74AFE84
:100A10001EE02F4B0020191C4322FFF743FE17E076
:100A2000274B1B689B781A1C2A4B9200D258244BE8
:100A30001B689B78191C274B8900CB581B7800201A
:100A4000111C1A1CFFF72EFE02E000F065F9C046EB
:100A500033E01B4B1B68DA78194B1B689B78D31863
:100A6000DAB21D4B1A70164B1B68DB781A1C144B3C
:100A70001B689B78D318002B0AD0FFF75FFF00207C
:100A800000210022FFF70EFE0F4B01221A7014E026
:100A900013E0114B0020191C0122FFF703FE0CE0AC
:100AA0000E4B00221A800D4B0020191C0222FFF76A
:100AB000F9FD02E000F030F9C046BD4680BDC046F9
:100AC00044040020901E00007C050020E81D00006A
:100AD0003C1E0000400000207D0500208C0400200A
:100AE00090B583B000AF234B1B7801229343DAB259
:100AF000204B1A70204B1B681B781A1C1F231340B5
:100B0000012B10D0022B1FD0002B23D11A4B1B68B6
:100B10001B781A1C1F23134001D1FFF755FF174BF9
:100B200088221A7019E0FC1D00F0CCFA031C237017
:100B3000FB1D1B78002B03D1104B88221A700CE090
:100B40000E4BC8221A7008E000F01CF80B4B8822EC
:100B50001A7002E000F0E0F8C046094A0849942300
:100B6000CB5CDBB220218B43D9B29423D154BD4658
:100B700003B090BDD00400204404002000060020F3
:100B80000020074080B582B000AF284B1B685B781F
:100B9000012B1DD0032B31D0002B00D042E0244B81
:100BA0001B781A1C214B1B685B79DA400123134028
:100BB00004D0BB1D802252001A8002E0BB1D00221F
:100BC0001A80BB1D0020191C0222FFF76BFD29E0D3
:100BD000164B1B685B790122111C99400B1CDBB280
:100BE000DB43DBB2124A12781340DAB2104B1A70B0
:100BF000002000210022FFF755FD13E00B4B1B687E
:100C00005B790122111C99400B1CDAB2084B1B784E
:100C10001343DAB2064B1A70002000210022FFF7BE
:100C200041FDC046BD4602B080BDC0464404002020
:100C30006804002080B582B000AF214A9023D35CC5
:100C4000D9B2FB1D08220A401A701D4A9023D35CBA
:100C5000DAB2BB1D12091A70BB1D1B78002B18D00D
:100C6000FB1D1B78002B27D1BB1D1B789A00154B51
:100C7000D2000021D154BB1D1B780122111C9940C8
:100C80000B1CDAB2104B1B781343DAB20E4B1A70FE
:100C900012E0FB1D1B78002B02D000F017F80BE0D0
:100CA000084B1B789B061B0FDBB20D2B02D1FFF705
:100CB00017FF01E000F048F8BD4602B080BDC04615
:100CC00000200740000600201405002080B500AF7A
:100CD0000D4B1B78032B0FD10C4A0D4B1B689978D9
:100CE0009823D154084B04221A700A4B1B78012216
:100CF0001343DAB2074B1A70002000210022FFF7DD
:100D0000D1FCBD4680BDC0467C05002000200740C8
:100D1000440400203805002080B500AF084A084987
:100D2000C023CB5CDBB202210B43D9B2C023D15428
:100D3000044B88221A70034B20225A80BD4680BD86
:100D4000002007400006002080B500AF054B1B784F
:100D500001221343DAB2034B1A70034B88221A7034
:100D6000BD4680BD140500200006002080B500AF00
:100D70000F4AC023D35CDBB21A1C0223134009D0F4
:100D80000B4A0B49C023CB5CDBB202218B43D9B2A7
:100D9000C023D154064A06498023CB5CDBB28021B4
:100DA00049420B43D9B28023D154BD4680BDC046D1
:100DB0000020074080B500AF414BFF221A70414B25
:100DC00000221A70404B00221A70404AC4230021AE
:100DD000D1543E4AC8230021D1543C4ACC2300219F
:100DE000D1543A4AD0230021D154384AD423002187
:100DF000D154364AD8230021D154354B20225A8071
:100E0000344A334B5A60324BC8221A70304B20227E
:100E10005A81314A2E4BDA602D4BC8221A722C4B64
:100E200020225A822D4A2A4B5A61294B88221A7451
:100E3000274B20225A832A4A254BDA61244B8822E9
:100E40001A76224AC0230D21D154204A8823FF213B
:100E5000D1541E4A8023FF21D1541C4A98230021DB
:100E6000D1541A4A8C23FF21D154184A174984239C
:100E7000CB5CDBB208210B43D9B28423D154134A93
:100E800012498423CB5CDBB204210B43D9B2842307
:100E9000D1540E4A0D498423CB5CDBB202210B43B3
:100EA000D9B28423D154094A08498423CB5CDBB2EC
:100EB00001210B43D9B28423D154BD4680BDC04625
:100EC00038050020D00400206904002000200740DD
:100ED00000060020B00400205C0500203C05002036
:100EE0008406002080B500AF2E4A8023D35CDBB29D
:100EF0001A1C0123134002D0FFF75CFF50E0294A7F
:100F00008023D35CDBB21A1C0423134003D0254A90
:100F100080230421D154234A8023D35CDBB2DBB28B
:100F20005BB2002B01DAFFF721FF1E4A8023D35C5E
:100F3000DBB21A1C0823134015D01A4A194994230E
:100F4000CB5CDBB202210B43D9B29423D154FFF71F
:100F500071FE144A13498023CB5CDBB208210B439A
:100F6000D9B28023D1540F4A8023D35CDBB21A1C40
:100F70001023134009D00B4A0A498023CB5CDBB213
:100F800010210B43D9B28023D154064A8023D35C6D
:100F9000DBB21A1C0223134002D0024A8023D35C26
:100FA000BD4680BD0020074080B500AF0C4B00223D
:100FB0001A70FFF7F1FA0B4B962292011A60094B57
:100FC00000221A71074B00225A71064B08229A71AF
:100FD000054B181C8021FFF7B1FABD4680BDC04605
:100FE00000020020040700200C07002080B500AF9D
:100FF0002D4B1B78DBB21A1C0223134019D02B4A4D
:101000002A499423CB5CDBB202210B43D9B294234F
:10101000D154274B00221A70264B01221A70FFF779
:10102000C3FF214B1B78DBB202229343DAB21E4B83
:101030001A701F4B1B78202B15D0222B2CD0002B85
:1010400001D02FE004E0C0461B4B1B78012BF9D1E7
:10105000184B1B78002B02D0164B00221A70144B31
:1010600000221A701EE0154B1B781A1C0123134036
:1010700011D0124B1B7801229343DAB20F4B1A7036
:101080000F4B0020191CFFF7F5FB00200021002268
:10109000FFF708FB06E005E0002000210022FFF733
:1010A00001FBC046BD4680BD010200200020074074
:1010B00000020020500000207C05002014050020C4
:1010C0000407002080B582B000AFFB1D00221A701B
:1010D000214B1B685B78212B11D004DC0A2B07D035
:1010E000202B13D031E0222B17D0AA2B1CD02CE0C0
:1010F0001A4B0020191C0122FFF7D4FA25E0184BE7
:101100000020191C0722FFF7CDFA1EE0154B202204
:101110001A70FB1D01221A7017E0124B22221A705E
:10112000FB1D00221A7010E00F4B181C8021FFF7E6
:1011300005FA0E4B1B78802252421343DAB20B4B56
:101140001A70094BFF221A70C046FB1D1B78181C31
:10115000BD4602B080BDC0464404002015050020F5
:1011600004070020000200200C07002014050020C6
:1011700080B500AF164B164A5268802149040A43D5
:101180005A60134B124A1268802109060A431A60FA
:101190000F4B0F4A52688021C9040A435A600C4B16
:1011A0000B4A12688021C9050A431A60084B084A95
:1011B0005268802189040A435A60054B044A126828
:1011C000802189050A431A60FFF7EEFEBD4680BD07
:1011D0000070044080B584B000AF786001235B42AA
:1011E000FB60FFF703FF114B1B781A1C0823134009
:1011F00017D00320FFF77AFB0D4A62232021D1523A
:101200000B4A60238021D154084B1B78082293435A
:10121000DAB2064B1A70074B1A787B681A700123F2
:10122000FB60FB68181CBD4604B080BD140500209F
:1012300000060020C406002080B582B000AF7860B0
:101240007A680B4B9A4201D901230CE0094B7A686A
:101250001202120A013A5A60064B00229A60054BAC
:1012600007221A600023181CBD4602B080BDC0468C
:10127000FFFFFF0010E000E080B582B000AF00F09B
:10128000DFFC124B7B60124B3B6007E03B681A1D92
:101290003A607A68111D796012681A603A680D4BDD
:1012A0009A42F3D30C4B3B6004E03B681A1D3A6052
:1012B00000221A603A68094B9A42F6D396235B01E2
:1012C000181CFFF7B9FF00F07DFAFEE7FC1E0000D6
:1012D0000000002054000020000200208C070020A5
:1012E00080B500AF00F0DEFCBD4680BD80B500AF2C
:1012F000FFF7F8FDBD4680BD80B500AFFEE7C046F4
:1013000080B584B000AF786000F0F6FC031CFB6091
:10131000C04600F0F1FC021CFB68D21A7B689A42BE
:10132000F7D3BD4604B080BD80B582B000AF204A7F
:1013300088235B010021D1501D4A1D491D4BCB580C
:101340008021C90019431B4BD1501B4B80225200F6
:101350001A601A4B01229A60184B184A52690121EF
:101360000A435A61124A1249124BCB588021490153
:101370001943104BD150124B802252005A61114B2D
:1013800020229A600F4B0F4A526920210A435A616A
:1013900000F0B2FC031C7B60C04600F0ADFC021CF8
:1013A0007B68D31A042BF8D9BD4602B080BDC04675
:1013B000007004403810000000A0044040F00F40CE
:1013C00000C00440C0F00F4080B500AF434A43491D
:1013D000434BCB58802109011943414BD150414B1C
:1013E000802252001A613F4B802292005A613D4B8D
:1013F000802292009A613B4B80229200DA613A4B44
:1014000010225A60384B384A526910210A435A61F7
:10141000324A3249354BCB588021C9031943334BEB
:10142000D150334B1022DA70314B00229A70304B7E
:1014300072225A702E4B2E4AD278D2B240210A43E1
:10144000D2B2DA70254A25492A4BCB5802211943DA
:10145000284BD150214A214982235B01CB5880215E
:101460004900194382235B01D150234B224A127851
:10147000D1B240220A40D2B21A701F4B1E4A1278D3
:10148000D2B2702149420A43D2B21A701A4B1A4A98
:101490005278D1B240220A40D2B25A70164B164A44
:1014A0005278D2B26F2149420A43D2B25A70134ADB
:1014B00080235B001249D150104A86235B001149FA
:1014C000D1500E4A8A235B000D49D1500B4A8E231E
:1014D0005B000D49D150BD4680BDC0460070044040
:1014E0003810000000B0044080F00F4034100000BD
:1014F000006007403C1000000010024000800040E7
:101500000660074080001A608000526080B500AF1E
:101510001D4A1D491D4BCB58C021C90019431B4B07
:10152000D150194A18491A4BCB5840211943184B2E
:10153000D150184B802252009A64164B80225200E0
:10154000DA64154B802292001A60134B80225200FD
:101550005A60124B1B225A70104B80229A70104B0B
:10156000C02212039A600E4B0D4A5269C021090332
:101570000A435A610A4B8022D2025A600A20FFF7BE
:10158000BFFEBD4680BDC04600700440381000005C
:10159000341000000090044000A0044000600640A9
:1015A00080F00F4080B584B000AFF860B9607A6019
:1015B000C046394A84235B00D25880239B041340E1
:1015C000F7D1C046344A8C235B00D25880239B0459
:1015D0001340F7D1314B10229A602F4A84235B00CD
:1015E00080214904D1502C4A8C235B00802149047E
:1015F000D150294AB96882235B00D150264A7B68C2
:101600001B02190A84235B00D150234AF9688823FE
:101610005B00D150204A7B681B02190A8C235B00B7
:10162000D1501D4A1C4986235B00CB588021C90537
:10163000194386235B00D150174A17498E235B005C
:10164000CB588021C90519438E235B00D150144A21
:10165000134B9B78D9B2BB68002B01D0242300E048
:1016600020230B43DBB29370C0460B4A84235B00FC
:10167000D25880235B041340F7D0C046064A8C231F
:101680005B00D25880235B041340F7D0034B102239
:101690005A60BD4604B080BD0080004080F00F401D
:1016A0000060074080B582B000AF78607B68002B97
:1016B00003D0054B20225A6002E0034B20229A609F
:1016C000BD4602B080BDC046C0F00F4080B500AF3F
:1016D00000F012FB021C074B1B68D31AFA2B07D928
:1016E00000F00AFB021C034B1A60034B0122DA6074
:1016F000BD4680BD0402002040F00F4080B58CB094
:1017000000AF0023BB6200F0F7FA021CBB6AD31AD9
:10171000052B39D900F0F0FA031CBB623B1D181CE5
:1017200000F056FA031C7B627B6A002B2CD03B1D19
:101730001B78742B28D13A1D154B101C191C0D2237
:1017400000F0FDFA002000F0FDF93B1C2F330022D1
:101750001A7011E03B1C2F331B783A1DD2180D4B29
:10176000101C01211A1C00F07DF93B1C2F331A7844
:101770003B1C2F3301321A703B1C2F331B780C2B70
:10178000E8D9012000F0DEF9BD460CB080BDC046AE
:10179000B81E0000C81E000080B582B000AF002354
:1017A0007B6000F0A9FA021C7B68D21AFA235B0066
:1017B0009A4203D900F0A0FA031C7B60BD4602B038
:1017C00080BDC04680B582B000AF00F0C1FAFFF71F
:1017D000ABFDFFF7F9FDFFF799FE154A154B101CFD
:1017E000191C00F0CBF8144B181C00F0D7F801209E
:1017F00000F0A8F9FFF7BCFCFFF768FFFFF77EFFDA
:10180000FFF7CAFFFB1D181CFFF7E4FC031C0133A4
:101810000DD0002000F096F9FA1D084B101C012194
:101820001A1C00F01FF9012000F08CF9E4E7E3E74F
:10183000A5150000A5160000E01E0000C81E00004F
:1018400080B584B000AF786000F056FA031CFB60EE
:10185000C04600F051FA021CFB68D21A7B689A421B
:10186000F7D3BD4604B080BD80B584B000AF7860CA
:1018700000F04CFA031CFB60C04600F047FA021C63
:10188000FB68D21A7B689A42F7D3BD4604B080BD8C
:1018900080B500AF0A4BFF221A72094A29230021A2
:1018A000D154074B1B680749074A081C111C012229
:1018B0009847034A2923D35C181CBD4680BDC04607
:1018C00008020020100200203102002080B584B000
:1018D00000AFB9607A603B1C0F33021C1A703B1CCE
:1018E0000F331B7820221343DAB20A4B1A720A49CB
:1018F000BA687B68081C111C1A1C00F020FA054B02
:101900001B687A680132054805499847BD4604B00E
:1019100080BDC046080200201102002010020020F5
:101920003102002080B584B000AFB9607A603B1C02
:101930000F33021C1A700D4B3A1C0F3212781A72B8
:101940000A4B1B687A68013209480A499847BB6804
:10195000002B07D0B968084A7B68081C111C1A1CA8
:1019600000F0EDF9BD4604B080BDC046080200207D
:1019700010020020310200203202002080B582B027
:1019800000AF78603960044B7A681A60024B3A689D
:101990005A60BD4602B080BD0802002080B584B008
:1019A00000AF78606420FFF74BFFFFF771FF031C67
:1019B0000E2B02D001235B424BE07B680B20191CED
:1019C0000522FFF783FF0B2000210522FFF7AAFF66
:1019D000224A7B68101C191C052200F0A1F9031C87
:1019E000002B02D002235B4233E03B1C0F330F225B
:1019F0001A703B1C0F330420191C0122FFF766FFED
:101A00003B1C0F3301221A703B1C0F331120191C91
:101A10000122FFF75BFF3B1C0F331220191C012230
:101A2000FFF754FF3B1C0F3302221A703B1C0F338D
:101A30000020191C0122FFF749FF094B181CFFF772
:101A400013FF3B1C0F330020191C0122FFF76AFF14
:101A50000023181CBD4604B080BDC04632020020E1
:101A6000D606000080B586B000AFF860B9607A6035
:101A7000C046FFF70DFF031C1A1C20231340F8D1AA
:101A80007B681020191C0522FFF720FF7B680A20C5
:101A9000191C0522FFF71AFFBB68202B01DD20234C
:101AA000BB60BB68FA68A020111C1A1CFFF70EFF70
:101AB000234B5B68012098470A20FFF7D5FE204B97
:101AC0005B68002098478220FFF7CEFE00F014F9F3
:101AD000031C7B61C046FFF7DBFE031C1A1C20239E
:101AE000134006D100F008F9021C7B69D31A632B5E
:101AF000F1D9FFF7CDFE031C1A1C2023134001D19E
:101B00000023BB603B1C13330820191C0122FFF784
:101B100009FF3B1C133330221A703B1C1333072080
:101B2000191C0122FFF7D2FE3B1C1333E120191CC4
:101B30000022FFF7CBFEBB68181CBD4606B080BD77
:101B40000802002080B584B000AF78607B68002B6D
:101B50001ED03B1C0F330020191C0122FFF7E2FEB0
:101B60003B1C0F331B7801221343DAB23B1C0F33AB
:101B70001A703B1C0F330020191C0122FFF7A6FE30
:101B8000124B5B68012098478220FFF76DFE1AE038
:101B90000E4B5B68002098473B1C0F330020191C3C
:101BA0000122FFF7BFFE3B1C0F331B78012293433A
:101BB000DAB23B1C0F331A703B1C0F330020191C88
:101BC0000122FFF783FEBD4604B080BD080200205D
:101BD00080B584B000AF78603B1C0F331720191C10
:101BE0000122FFF79FFE3B1C0F331B781A1C0123B9
:101BF000134001D000231DE0104A2923D35C5B0869
:101C0000DAB207231340DAB23B1C0F331A703B1CC5
:101C10000F336020191C0122FFF784FE3B1C0F3399
:101C20001B787A686120111C1A1CFFF77BFE3B1C95
:101C30000F331B78181CBD4604B080BD080200207D
:101C400080B500AF124B124AD278D1B21F220A409F
:101C5000D2B2602149420A43D2B2DA700D4A0D492C
:101C60000D4BCB58E0218B43402119430A4BD150F7
:101C7000084A0849094BCB58802109011943074BF1
:101C8000D150074BA822D200DA60BD4680BDC046C5
:101C900000400640007004400410000038100000AE
:101CA00000B0044080B500AF0E4B1B681A1C6432B4
:101CB0000C4B1A600C4B1B681A1C64320A4B1A60DE
:101CC000094B1A68094B9A420AD9094B1B685A1CDE
:101CD000074B1A60044B1B6806495A18024B1A60DE
:101CE000BD4680BD580200205C020020E7030000D2
:101CF0005402002018FCFFFF80B500AF024B1B68A8
:101D0000181CBD4680BDC0465402002080B500AFFF
:101D1000024B1B68181CBD4680BDC04658020020FF
:101D200030B50023934208D0C55C0133CC18013C88
:101D30002478A542F6D0281B00E0002030BD10B565
:101D40000023934203D0CC5CC4540133F9E710BDA7
:101D50007FB5204D032301950393002301AC02932B
:101D60000126301C211CABBE041C1B4B01951C60C2
:101D700003230393042301AC0293301C211CABBE4C
:101D8000041C164B01951C6003230393082301AC2C
:101D900002930125281C211CABBE041C10490F48CE
:101DA0000C60013401D102680A6000220D4B01244D
:101DB0006442D4500832A02AF8D1074A0068126859
:101DC00009681A6000225A609860DA6019615A61E5
:101DD0007FBDC046F81E00006402002060020020A3
:101DE000680200206C020020120110010200002095
:101DF000A2150FA50000010203010000040309045D
:101E00001403460072006500650073006300610002
:101E10006C00650012035500530042002D00550070
:101E200041005200540000001203540045005300CA
:101E300054005F0031002E00310000000902430011
:101E4000020100C032090400000102020101052460
:101E500000100105240100010424020005240600ED
:101E6000010705810320000209040100020A0000A5
:101E70000107058202200000070503022000000080
:101E80002020202020202020202020202020202052
:101E9000A00A0000B40A0000B40A0000B40A00005E
:101EA000B40A0000E0090000F2090000B40A0000D2
:101EB000920A0000520A000074656D7065726174C8
:101EC0007572650A0D0000002F7831322F78333497
:101ED0002F7835362F7837382F78393100000000C9
:101EE0002F7831322F7833342F7835362F783738B2
:0C1EF0002F783930000000003A747400B4
:101EFC00B00400205C0500203C0500208406002076
:101F0C00480400202404002090040020F404002045
:101F1C00E4060020180500206C0400208005002039
:101F2C00C406002000040020A4060020D4040020D5
:101F3C00FC1D0000001E0000141E0000281E0000E6
:041F4C000100000090
:0400000300000410E5
:00000001FF
