:1000000090FBFF1F810C0000F10C0000F10C0000C0
:1000100000000000000000000000000000000000E0
:10002000000000000000000000000000F10C0000D3
:100030000000000000000000F10C0000E10C0000D6
:10004000F10C0000F10C0000F10C0000F10C0000BC
:1000500000000000F10C0000F10C0000F10C0000A9
:10006000F10C0000F10C0000F10C0000F10C00009C
:10007000F10C0000F10C0000F10C0000F10C00008C
:10008000F10C0000F10C0000F10C0000F10C00007C
:10009000F10C0000F10C0000F10C00000000000069
:1000A000E90C0000F10C0000F10C0000F10C000064
:1000B000F10C000000000000F10C0000F10C000049
:10040000FFFFFFFFFFFFFFFFFFFFFFFFFEFFFFFFFD
:10041000202815DC0B4BC022520099580A4A104084
:1004200004D520220138524210430130012282407B
:10043000101C1143C022520099501A6810431860D2
:100440007047C04600E100E01F000080074B084AEB
:10045000084998580140995098588021C90208438A
:100460009850054A985801439950704700700440CD
:1004700004100000FFFFFEFF34100000074B4A1E6F
:1004800082181A60064B00221860064B1970064B42
:100490001860064B1860064B1A7070470CF2FF1F6D
:1004A00014F2FF1F1DF2FF1F18F2FF1F10F2FF1FB3
:1004B0001CF2FF1F234B10B51A68234B1A60234B05
:1004C00000221A70FFF7C2FF1820FFF7A1FF204A91
:1004D00080211369494219431E4BC9B25973101C3C
:1004E00001691B4A0C06FBD41B491C480C0AE4B2E8
:1004F00004700C0C1A48E4B204701A48090E01701A
:100500001949C86F0221C0B2084318490870184938
:100510000120CC6F1749E4B204430C7054683F21AA
:100520002140597011694024C9B2214359731249BD
:100530000C68E4B220430870D2681021D2B20A439A
:100540005A7210BD00F0FF1F44F4FF1F70F5FF1F2B
:10055000FC200740FF20074000F6FF1F9C200740BB
:10056000B0200740B4200740042007408020074007
:10057000082007408420074094200740F7B5002555
:100580000B1C111CA84201D08500EDB20235284A8F
:10059000EDB2AC00A458274A01941678264CF70710
:1005A00010D5264F21703B60254B1F68BB79FF7922
:1005B0003F02BC469C446746BFB28F4202D2022D26
:1005C00000D123701F492378495D01278B4205D94B
:1005D0005B1ABE43237016700B1C03E000213E43E0
:1005E000217016701849ED004A195380019A013B99
:1005F000DBB2FF2B07D0114E3468671C37602478BC
:1006000014700132F3E7114B01241A78271C161CD1
:10061000C6408740381C264204D08824BA434C5533
:100620001A7003E0C82410434C551870F7BDC0463B
:1006300000F0FF1F2FF5FF1F20F4FF1F80F6FF1FA4
:1006400044F4FF1FF80D000000F6FF1FCCF4FF1F5D
:10065000013010B5C0B2084B8200D458074BC0001F
:10066000181880780023DAB2904203D0E25CCA54B2
:100670000133F8E710BDC04600F0FF1F00F6FF1F72
:10068000024B400118184088000A704700F6FF1F0F
:10069000154B0522191CC4310A700A711A1CCC3280
:1006A00009211170191C0122D031D8330A700A7146
:1006B0001A700E4B0022191C30310A700C495A86F0
:1006C0005963191C50310A70191C52310A80094AA9
:1006D00080215A651A1C603211701A1C6232FF2187
:1006E0001180054A5A6670470020074000F6FF1F38
:1006F0008CF4FF1F6AF4FF1FC4F6FF1F07B5174BEA
:100700001B685A78012A1DD0002A0AD0032A24D156
:100710005B79134A012199400B1C11780B4313702C
:1007200016E00F4A5B7912786946DA40131C012201
:1007300013400631002B01D0802393400B80002012
:10074000022208E006495B799A400B7893430B70CC
:100750000020011C021CFFF711FF07BD44F4FF1F1E
:1007600068F4FF1F08B50B4B1A78032A0BD10A4A0D
:1007700012689178094A117004221A70084B0121FD
:100780001A780A431A700020011C021CFFF7F6FEBB
:1007900008BDC04670F5FF1F44F4FF1F98200740B6
:1007A0002FF5FF1F054B02211A68D2B20A431A70B7
:1007B000034B88221A7020225A807047C0200740BD
:1007C00000F6FF1F08B5244B1B685878092840D84D
:1007D00000F0F6FA383F3F3F3F050C3F342200203F
:1007E000021C011CFFF7CAFE032224E0DA78022A69
:1007F00007D0032A09D0012A2BD100201749122241
:1008000024E000201649432220E09A78154B9200FC
:10081000D15800200A7819E0DA789B789B18124AA0
:100820001370002B17D0FFF733FF0020021C011CB0
:10083000FFF7A4FE01220D4B1A700CE000200A49BC
:10084000012203E00A49002008800222FFF796FEF9
:1008500001E0FFF7A7FF08BD44F4FF1FD40D00001F
:10086000320E000040F0FF1F71F5FF1F70F5FF1FF3
:100870008AF4FF1F08B5154B01211A788A431A70B4
:10088000134B1B681A781F2313408B4209D0002B8F
:1008900004D0022B11D1FFF731FF0BE0FFF792FFDD
:1008A00008E000F061F90B4BC822002800D1882233
:1008B0001A7004E08822074BFAE7FFF773FF064B34
:1008C000DF2219680A401A7008BDC046CCF4FF1F29
:1008D00044F4FF1F00F6FF1F94200740044B012142
:1008E0001A780A431A70034B88221A707047C04660
:1008F0000DF5FF1F00F6FF1F08B5134A0823116806
:1009000012680B40D2B212090CD0002B1AD10F4939
:10091000500143540E4B012191400A1C19780A439F
:100920001A700FE0002B02D0FFF71CFF0AE0074B04
:100930001B789B061B0F0D2B02D1FFF79BFF01E0DD
:10094000FFF7CCFF08BDC0469020074000F6FF1F10
:100950000DF5FF1F084B02221968114203D01968D8
:10096000C9B291431970054B8022DB6F52421A4382
:10097000034BD2B21A707047C020074004200740D2
:10098000802007401C4BFF20F0B518701B4B002146
:1009900019701B4B1B4D19701B4B20241A1CC432A1
:1009A000117011711172117311741175174A184F6A
:1009B0005560C82515701572164D548054815482A7
:1009C0005483154C55618825D76015741576D4610C
:1009D0001A1CC0320D2414705A191070083A107085
:1009E0001E1C11760C3208361070F26F0F21D2B235
:1009F0000A4384331A70F0BD2FF5FF1FCCF4FF1F9C
:100A000069F4FF1FACF4FF1F0020074000F6FF1F32
:100A100050F5FF1F30F5FF1F84F6FF1F38B51A4C45
:100A2000E36FDA0702D5FFF7ADFF2BE0E26F042397
:100A30001A4201D0154A1370E36F1A0601D5FFF769
:100A400089FFE36F08252B420DD0114B02211A6854
:100A5000D2B20A431A70FFF74FFF0B4BDB6FDBB2CA
:100A60001D430A4B1D70E26F10231A4205D0064A3F
:100A7000D26FD2B21343054A1370E36F9A0701D5C0
:100A8000014BDB6F38BDC046042007408020074083
:100A9000942007400C4B10B500241C70FFF70AFD92
:100AA0000A4BC022D96992000A43DA61084B9622A8
:100AB00092011A600748082280211C715C719A71AA
:100AC000FFF7DCFC10BDC04600F2FF1F00B0044081
:100AD00004F7FF1F0CF7FF1F70B51C4D02262B7883
:100AE0001B4C33420ED01B4B1A68D2B232431A70E1
:100AF00000232370184B01221A70FFF7CBFF2B78CD
:100B0000B3432B702378202B0FD0222B18D0002B2F
:100B10001BD1124A1278012A17D10F4A11780029E5
:100B200000D01370002323700FE00D4B01211A78C1
:100B30000A420AD08A4300200A491A70FFF788FD4A
:100B40000020011C021CFFF719FD70BD01F2FF1F00
:100B500000F2FF1F9420074050F0FF1F70F5FF1FA9
:100B60000DF5FF1F04F7FF1F10B5174B1B685B78CF
:100B7000212B1ED007D80A2B17D0202B21D1134AA6
:100B8000012013701EE0222B19D0AA2B19D1104C72
:100B90008021201CFFF772FC0E4B802219785242F4
:100BA0000A431A70FF2323700BE000200A49012238
:100BB00002E00A4900200722FFF7E0FC01E0034AB7
:100BC0001370002010BDC04644F4FF1F00F2FF1F49
:100BD0000CF7FF1F0DF5FF1F0EF5FF1F04F7FF1F9A
:100BE00008B5114B8022596852040A435A601968AB
:100BF000802212060A431A6059688022D2040A43EE
:100C00005A6019688022D2050A431A605968802206
:100C100092040A435A601968802292050A431A60B6
:100C2000FFF738FF08BDC0460070044070B5061CD1
:100C3000FFF752FF0F4C082523782B4217D00320D3
:100C4000FFF71EFD0C4B20211A1C6232118060330D
:100C500080221A7023780220AB432370074C0122B4
:100C6000211CFFF78BFC23780120337001E0012069
:100C7000404270BD0DF5FF1F00F6FF1FC4F6FF1FB9
:100C800008B500F06BF800230E4A0F499A188A4203
:100C900004D20E49C95804331160F5E70C4B0D49D5
:100CA000181D043B00228B4202D21A60031CF6E797
:100CB000094B0A4959609A6007221A6000F01AF835
:100CC000FEE7C04600F0FF1F54F0FF1F780E000043
:100CD00004F2FF1F8CF7FF1F10E000E07FBB000055
:100CE00008B500F05FF808BD08B5FFF797FE08BD2E
:100CF000FEE7000037B5144B8822002152019950BD
:100D0000124A80219858C90001439950104B802203
:100D1000104C52001A600123A3606269134363619F
:100D2000FFF75EFF00F046F80B4D2B68C01AFA285B
:100D300004D900F03FF801232860E36068460730DB
:100D4000FFF774FFEEE7C046007004403810000063
:100D500000A0044040F00F4004F2FF1F0C4BA02104
:100D60001A68E020D200D20E0A43DA70094B0A4A10
:100D700099588143402001439950084A802198584E
:100D8000090101439950064BA822D200DA6070474E
:100D900000400640007004400410000038100000BD
:100DA00000B00440024B1A6801321A607047C04616
:100DB00008F2FF1F014B18687047C04608F2FF1F7A
:100DC00002B4714649084900095C49008E4402BCDE
:100DD0007047C0461201100102000020A2150FA5A5
:100DE00000000102030112035400450053005400A7
:100DF0005F0031002E003000202020202020202005
:100E00002020202020202020040309041403460071
:100E10007200650065007300630061006C0065008E
:100E200012035500530042002D00550041005200AE
:100E3000540009024300020100C03209040000010D
:100E4000020201010524001001052401000104240F
:100E500002000524060001070581032000020904A1
:100E60000100020A000001070582022000000705B8
:050E7000030220000058
:100E7800ACF4FF1F50F5FF1F30F5FF1F84F6FF1F6E
:100E880048F4FF1F21F4FF1F8CF4FF1FEDF4FF1F30
:100E9800E4F6FF1F0FF5FF1F6AF4FF1F72F5FF1F2F
:100EA800C4F6FF1F00F4FF1FA4F6FF1FCDF4FF1FB9
:100EB800080E00000C0E0000200E0000E60D0000D9
:040EC8000100000025
:0400000300000410E5
:00000001FF
