:1000000028F4FF1F79040000F1040000F10400004F
:1000100000000000000000000000000000000000E0
:10002000000000000000000000000000F1040000DB
:100030000000000000000000F1040000E5040000E2
:10004000F1040000F1040000F1040000F1040000DC
:1000500000000000F1040000F1040000F1040000C1
:10006000F1040000F1040000F1040000F1040000BC
:10007000F1040000F1040000F1040000F1040000AC
:10008000F1040000F1040000F1040000F10400009C
:10009000F1040000F1040000F10400000000000081
:1000A000F1040000F1040000F1040000F10400007C
:1000B000F104000000000000F1040000F104000061
:10040000FFFFFFFFFFFFFFFFFFFFFFFFFEFFFFFFFD
:1004100080B584B000AF786000F0D4FA031CFB60B4
:10042000C04600F0CFFA021CFB68D21A7B689A42E1
:10043000F7D3BD4604B080BD80B582B000AF786010
:100440007A680B4B9A4201D901230CE0094B7A6878
:100450001202120A013A5A60064B00229A60054BBA
:1004600007221A600023181CBD4602B080BDC0469A
:10047000FFFFFF0010E000E080B582B000AF00F0A9
:1004800063FA124B7B60124B3B6007E03B681A1D1E
:100490003A607A68111D796012681A603A680D4BEB
:1004A0009A42F3D30C4B3B6004E03B681A1D3A6060
:1004B00000221A603A68094B9A42F6D3084B181C7E
:1004C000FFF7BAFF00F034FAFEE7C046780A0000F2
:1004D00000F0FF1F08F0FF1F08F0FF1F24F0FF1FB0
:1004E00080BB000080B500AF00F060FABD4680BD63
:1004F00080B500AFFEE7C04680B500AF0E4A882346
:100500005B010021D1500C4A0B490C4BCB58802188
:10051000C9001943094BD150094B802252001A607F
:10052000084B01229A60074B064A526901210A438F
:100530005A61BD4680BDC0460070044038100000BE
:1005400000A0044040F00F4080B582B000AF78605A
:100550003960C0461E4A84235B00D25880239B0426
:100560001340F7D11B4B802252009A611A4B402254
:100570009A600120FFF74CFF154A84235B0080211D
:100580004904D150124A796880235B00D150104A47
:100590003B681B02190A84235B00D1500C4A0C49AA
:1005A00086235B00CB588021C905194386235B0055
:1005B000D150084B802292009A61084B074A9278EA
:1005C000D2B220210A43D2B29A70BD4602B080BD99
:1005D0000080004000B0044080F00F400060074001
:1005E00080B500AF374A3749374BCB5880210901D6
:1005F0001943354BD150354B802292001A61334B51
:10060000802292005A61314B802292009A61304BD5
:100610002F4A526940210A435A612A4A29492D4BDF
:10062000CB588021C90319432A4BD1502A4B2A4A5F
:10063000D278D2B21A210A43D2B2DA70264B264AB5
:100640009278D2B210210A43D2B29A70224B212260
:100650005A70214B204AD278D2B240210A43D2B2FA
:10066000DA70184A17491D4BCB58022119431B4B0E
:10067000D150144A134982235B01CB588021490091
:10068000194382235B01D150154B154A1278D1B220
:1006900040220A40D2B21A70114B114A1278D2B2DB
:1006A0006F2149420A43D2B21A700E4A82235B007C
:1006B0000D49D1500B4A86235B000C49D150BD46F1
:1006C00080BDC046007004403810000000B00440F7
:1006D00080F00F4034100000006007403C10000024
:1006E0000010024000800040066007408000526019
:1006F00080B588B000AFF860B9607A600023BB6154
:1007000058E000237B61FA68BB69D2183B1C1E339A
:1007100012781A703B1C1F3300221A701FE03B1C1A
:100720001E331B785BB2002B04DA7B69062213436D
:100730007B6103E07B69042213437B613A1C1E3218
:100740003B1C1E331B78DB1813707B69DB007B615D
:100750003B1C1F331A783B1C1F3301321A703B1CA1
:100760001F331B78072BDAD97B69DB087B61BA69F9
:10077000131C5B009B18BA68D3183A1C1632127807
:100780001A70BA69131C5B009B180133BA68D3183E
:100790003A1C153212781A70BA69131C5B009B1848
:1007A0000233BA68D3183A1C143212781A70BB6933
:1007B0000133BB61BA697B689A42A2D3BD4608B0D7
:1007C00080BDC04680B500AF354B1B68FE2B0CD8F2
:1007D000344B9B78013BDAB2324B9A70314B1B7829
:1007E0000133DAB22F4B1A7040E02D4B1A68FE230A
:1007F000FF339A4201D8C04638E0294B1A68BF231C
:100800009B009A4213D8274B1B78013BDAB2254B49
:100810001A70244B5B780133DAB2224B5A70214BA9
:100820005B78DBB25BB2002B20DAC0461EE01C4BCB
:100830001A681D4B9A4201D8C04617E0184B1A6837
:100840001A4B9A420CD8174B5B78013BDAB2154B26
:100850005A70144B9B780133DAB2124B9A7005E050
:100860000F4B1A68124B9A4200D8C0460C4B1B68BB
:100870000133181C0F4900F0F3F80B1C1A1C084B2D
:100880001A60084A0C4B101C191C0322FFF730FF9A
:10089000094B181C0921FFF757FEBD4680BDC04615
:1008A00004F0FF1F00F0FF1FFB030000FA0400002C
:1008B000F9050000FA05000008F0FF1F80B500AF41
:1008C0000D4B1B78092B15D800F07CF8021C0B4B44
:1008D0001B68D31AFA2B0DD900F074F8021C074BD1
:1008E0001A60074B0122DA60034B1B780133DAB23E
:1008F000014B1A70BD4680BD14F0FF1F18F0FF1F9A
:1009000040F00F4080B500AF00F05CF8021C074BD0
:100910001B68D31A052B06D900F054F8021C034BB0
:100920001A60FFF74FFFBD4680BDC0461CF0FF1F99
:1009300080B500AFFFF7E0FDFFF752FEFFF7BEFF07
:10094000FFF7E0FFFAE7C04680B500AF124B124A4E
:10095000D278D1B21F220A40D2B2602149420A4362
:10096000D2B2DA700D4A0D490D4BCB58E0218B43C2
:10097000402119430A4BD150084A0849094BCB582A
:10098000802109011943074BD150074BA822D200FF
:10099000DA60BD4680BDC04600400640007004409D
:1009A000041000003810000000B0044080B500AF13
:1009B000034B1B685A1C024B1A60BD4680BDC046E3
:1009C00020F0FF1F80B500AF024B1B68181CBD460E
:1009D00080BDC04620F0FF1F002934D00123002233
:1009E00010B488422CD301242407A14204D28142AE
:1009F00002D209011B01F8E7E400A14204D28142BE
:100A000002D249005B00F8E7884201D3401A1A433A
:100A10004C08A04202D3001B5C0822438C08A04271
:100A200002D3001B9C082243CC08A04202D3001B27
:100A3000DC082243002803D01B0901D00909E3E7A1
:100A4000101C10BC7047002801D00020C04307B420
:100A5000024802A14018029003BDC04619000000E0
:100A60000029F0D003B5FFF7B9FF0EBC4243891A45
:080A70001847C0467047C0465C
:080A7800FF000000FF00000078
:0400000300000410E5
:00000001FF
