:1000000090FBFF1F91120000151300001513000054
:1000100000000000000000000000000000000000E0
:1000200000000000000000000000000015130000A8
:10003000000000000000000015130000FD12000089
:100040001513000015130000151300001513000010
:100050000000000015130000151300001513000028
:1000600015130000151300001513000015130000F0
:1000700015130000151300001513000015130000E0
:1000800015130000151300001513000015130000D0
:1000900015130000151300001513000000000000E8
:1000A00009130000151300001513000015130000BC
:1000B00015130000000000001513000015130000C8
:10040000FFFFFFFFFFFFFFFFFFFFFFFFFEFFFFFFFD
:1004100090B583B000AF78607B68202B27DC154A4D
:100420001449C0235B00C9587868134B034004D5B6
:10043000013B20204042034301330120041C9C4027
:10044000231C1943C0235B00D1500A4A094B196889
:100450007868094B034004D5013B20204042034308
:1004600001330120041C9C40231C0B431360BD4638
:1004700003B090BD00E100E01F00008080B582B0B5
:1004800000AF021CFB1D1A70FB1D1B78012B0DD049
:10049000022B1FD0002B32D11F4A1F491F4BCB58B4
:1004A000A021C90219431D4BD15028E000F042F8A9
:1004B000194A1949194BC958194B1940174BD150B2
:1004C000154A1549154BCB588021C9021943134BC6
:1004D000D15014E0104A1049104BC958114B194023
:1004E0000E4BD1500C4A0C490F4BCB588021890040
:1004F00019430D4BD1500D4B802292005A61064A90
:1005000005490B4BCB588021C9021943084BD150E8
:10051000BD4602B080BDC04600700440041000001B
:10052000FFFFFEFFFFFFFBFF3810000000900440BC
:100530003410000080B500AFBD4680BD80B582B0EC
:1005400000AF78600A1CFB1C1A70FB1C1B78013B77
:100550007A68D2180A4B1A600A4B7A681A600A4BFA
:10056000FA1C12781A70094B7A681A60084B7A687C
:100570001A60084B00221A70BD4602B080BDC0460A
:1005800058F2FF1F60F2FF1F69F2FF1F64F2FF1FA6
:100590005CF2FF1F68F2FF1F80B500AF3C4B1A688A
:1005A0003C4B1A603C4B00221A700120FFF766FF9B
:1005B0001820FFF72DFF394A384986235B00CB5CB2
:1005C000DBB2802149420B43D9B286235B00D15470
:1005D000C046324A86235B00D35CDBB2DBB25BB23F
:1005E000002BF6DB2D4A2E4B1B0AD9B29C23D1548B
:1005F0002A4A2B4B1B0CD9B2B023D154274A284B83
:100600001B0ED9B2B423D154244A24498023CB5C95
:10061000DBB202210B43D9B28023D1541F4A1F49B8
:100620008423CB5CDBB201210B43D9B28423D154A8
:100630001A4A1A4980235B00CB5CD9B23F230B4096
:10064000D9B280235B00D154144A144986235B003D
:10065000CB5CDBB240210B43D9B286235B00D15483
:100660000E4A0E499423CB5CDBB201210B43D9B275
:100670009423D154094A094984235B00CB5CDBB243
:1006800010210B43D9B284235B00D154BD4680BDF9
:1006900000F0FF1F44F4FF1F7CF5FF1F0020074000
:1006A00000F6FF1F80B586B000AF3960FB1D011C4E
:1006B0001970BB1D1A703B1C103300221A803B1CA2
:1006C0000F33FA1D12781A70FB1D1B78002B04D013
:1006D000FB1DFA1D127892001A70FB1DFA1D12788C
:1006E00002321A70FB1D1A785A4B9200D3587B6164
:1006F000594B1B781A1C0123134024D0574B3A68DE
:100700001A60574BBA1D12781A70564B1B68DB796A
:100710001B0299B2534B1B689B791A1C3B1C10336C
:100720008A181A80BB1D1B789BB23A1C10321288A3
:100730009A4208D2FB1D1B78022B04D1494B1B683F
:100740009A79474B1A70FB1D1B78474AD25C444B81
:100750001B789A4218D2FB1D1A783B1C133342496E
:100760008A5C1A703E4B1A78FB1D1B783E49CB5CA5
:10077000D31ADAB23A4B1A70374B1B7801229343E3
:10078000DAB2354B1A700EE03B1C1333344A127840
:100790001A70334B00221A702F4B1B78012213431F
:1007A000DAB22D4B1A70FB1D1B783A1C13321278EB
:1007B00092B22E49DB00CB185A8009E07B695A1CA3
:1007C0007A61264A1268501C2449086012781A700F
:1007D0003B1C13331B783A1C1332591E1170002B2B
:1007E000ECD1234B1B781A1C3B1C0F331B78DA40CF
:1007F0000123134016D0FB1D1A781C4BD200882110
:10080000D1543B1C0F331B780122111C99400B1C47
:10081000DBB2DB43DBB2164A12781340DAB2144B78
:100820001A7013E0FB1D1A78104BD200C821D15466
:100830003B1C0F331B780122111C99400B1CDAB2B0
:100840000B4B1B781343DAB2094B1A70BD4606B046
:1008500080BDC04600F0FF1F38F5FF1F80F6FF1F68
:1008600020F4FF1F44F4FF1F3C18000000F6FF1F98
:10087000D0F4FF1F80B584B000AF021C3960FB1DAF
:100880001A70FB1D1A78FB1D01321A70FB1D1A78B5
:10089000144B9200D358FB60FB1D1B78124ADB00FF
:1008A000D3185A883B1C0B331A70FB1D3A1C0B32B1
:1008B00012781A7007E03B685A1C3A60FA68511CBB
:1008C000F96012781A703B1C0B331B783A1C0B3200
:1008D000591E1170002BEED1FB1D1B78181CBD4654
:1008E00004B080BD00F0FF1F00F6FF1F80B584B08C
:1008F00000AF021CFB1D1A70FB1D1B789B000E4AEB
:10090000DB00D3185B881B0A9BB2DAB2FB1D1B7895
:100910009B000949DB00CB185B881B02DBB2134349
:10092000DAB23B1C0F331A703B1C0F331B789BB29F
:10093000181CBD4604B080BD00F6FF1F80B500AF97
:100940001C4AC4230521D1541A4AC8230521D15475
:10095000184ACC230921D154164AD0230121D1545D
:10096000144AD4230121D154124AD8230121D1544D
:10097000114A30230021D1540F4B00225A860F4ACE
:100980000D4B5A630C4A50230021D1540A4A52237A
:100990000021D1520A4A084B5A65074A6023802138
:1009A000D154054A6223FF21D152064A024B5A66AE
:1009B000BD4680BD0020074000F6FF1F90F4FF1FDA
:1009C0006CF4FF1FC4F6FF1F80B500AF3C4B1B68E3
:1009D0005B78092B6ED89A003A4BD3181B689F4658
:1009E000002000210022FFF75DFE374B03221A7022
:1009F00063E0334B1B68DB78022B0AD0032B0FD04C
:100A0000012B22D1314B0020191C1222FFF74AFE84
:100A10001EE02F4B0020191C4322FFF743FE17E076
:100A2000274B1B689B781A1C2A4B9200D258244BE8
:100A30001B689B78191C274B8900CB581B7800201A
:100A4000111C1A1CFFF72EFE02E000F065F9C046EB
:100A500033E01B4B1B68DA78194B1B689B78D31863
:100A6000DAB21D4B1A70164B1B68DB781A1C144B3C
:100A70001B689B78D318002B0AD0FFF75FFF00207C
:100A800000210022FFF70EFE0F4B01221A7014E026
:100A900013E0114B0020191C0122FFF703FE0CE0AC
:100AA0000E4B00221A800D4B0020191C0222FFF76A
:100AB000F9FD02E000F030F9C046BD4680BDC046F9
:100AC00044F4FF1F4C1800007CF5FF1FA417000022
:100AD000F817000040F0FF1F7DF5FF1F8CF4FF1F8B
:100AE00090B583B000AF234B1B7801229343DAB259
:100AF000204B1A70204B1B681B781A1C1F231340B5
:100B0000012B10D0022B1FD0002B23D11A4B1B68B6
:100B10001B781A1C1F23134001D1FFF755FF174BF9
:100B200088221A7019E0FC1D00F0D2FA031C237011
:100B3000FB1D1B78002B03D1104B88221A700CE090
:100B40000E4BC8221A7008E000F01CF80B4B8822EC
:100B50001A7002E000F0E0F8C046094A0849942300
:100B6000CB5CDBB220218B43D9B29423D154BD4658
:100B700003B090BDD0F4FF1F44F4FF1F00F6FF1F29
:100B80000020074080B582B000AF284B1B685B781F
:100B9000012B1DD0032B31D0002B00D042E0244B81
:100BA0001B781A1C214B1B685B79DA400123134028
:100BB00004D0BB1D802252001A8002E0BB1D00221F
:100BC0001A80BB1D0020191C0222FFF76BFD29E0D3
:100BD000164B1B685B790122111C99400B1CDBB280
:100BE000DB43DBB2124A12781340DAB2104B1A70B0
:100BF000002000210022FFF755FD13E00B4B1B687E
:100C00005B790122111C99400B1CDAB2084B1B784E
:100C10001343DAB2064B1A70002000210022FFF7BE
:100C200041FDC046BD4602B080BDC04644F4FF1F32
:100C300068F4FF1F80B582B000AF214A9023D35CD7
:100C4000D9B2FB1D08220A401A701D4A9023D35CBA
:100C5000DAB2BB1D12091A70BB1D1B78002B18D00D
:100C6000FB1D1B78002B27D1BB1D1B789A00154B51
:100C7000D2000021D154BB1D1B780122111C9940C8
:100C80000B1CDAB2104B1B781343DAB20E4B1A70FE
:100C900012E0FB1D1B78002B02D000F017F80BE0D0
:100CA000084B1B789B061B0FDBB20D2B02D1FFF705
:100CB00017FF01E000F048F8BD4602B080BDC04615
:100CC0000020074000F6FF1F14F5FF1F80B500AF9E
:100CD0000D4B1B78032B0FD10C4A0D4B1B689978D9
:100CE0009823D154084B04221A700A4B1B78012216
:100CF0001343DAB2074B1A70002000210022FFF7DD
:100D0000D1FCBD4680BDC0467CF5FF1F00200740DA
:100D100044F4FF1F38F5FF1F80B500AF084A0849AB
:100D2000C023CB5CDBB202210B43D9B2C023D15428
:100D3000044B88221A70034B20225A80BD4680BD86
:100D40000020074000F6FF1F80B500AF054B1B7861
:100D500001221343DAB2034B1A70034B88221A7034
:100D6000BD4680BD14F5FF1F00F6FF1F80B500AF24
:100D70000F4AC023D35CDBB21A1C0223134009D0F4
:100D80000B4A0B49C023CB5CDBB202218B43D9B2A7
:100D9000C023D154064A06498023CB5CDBB28021B4
:100DA00049420B43D9B28023D154BD4680BDC046D1
:100DB0000020074080B500AF414BFF221A70414B25
:100DC00000221A70404B00221A70404AC4230021AE
:100DD000D1543E4AC8230021D1543C4ACC2300219F
:100DE000D1543A4AD0230021D154384AD423002187
:100DF000D154364AD8230021D154354B20225A8071
:100E0000344A334B5A60324BC8221A70304B20227E
:100E10005A81314A2E4BDA602D4BC8221A722C4B64
:100E200020225A822D4A2A4B5A61294B88221A7451
:100E3000274B20225A832A4A254BDA61244B8822E9
:100E40001A76224AC0230D21D154204A8823FF213B
:100E5000D1541E4A8023FF21D1541C4A98230021DB
:100E6000D1541A4A8C23FF21D154184A174984239C
:100E7000CB5CDBB208210B43D9B28423D154134A93
:100E800012498423CB5CDBB204210B43D9B2842307
:100E9000D1540E4A0D498423CB5CDBB202210B43B3
:100EA000D9B28423D154094A08498423CB5CDBB2EC
:100EB00001210B43D9B28423D154BD4680BDC04625
:100EC00038F5FF1FD0F4FF1F69F4FF1F0020074013
:100ED00000F6FF1FB0F4FF1F5CF5FF1F3CF5FF1F7E
:100EE00084F6FF1F80B500AF2E4A8023D35CDBB2AF
:100EF0001A1C0123134002D0FFF75CFF50E0294A7F
:100F00008023D35CDBB21A1C0423134003D0254A90
:100F100080230421D154234A8023D35CDBB2DBB28B
:100F20005BB2002B01DAFFF721FF1E4A8023D35C5E
:100F3000DBB21A1C0823134015D01A4A194994230E
:100F4000CB5CDBB202210B43D9B29423D154FFF71F
:100F500071FE144A13498023CB5CDBB208210B439A
:100F6000D9B28023D1540F4A8023D35CDBB21A1C40
:100F70001023134009D00B4A0A498023CB5CDBB213
:100F800010210B43D9B28023D154064A8023D35C6D
:100F9000DBB21A1C0223134002D0024A8023D35C26
:100FA000BD4680BD0020074080B500AF0F4B00223A
:100FB0001A70FFF7F1FA0E4B0D4AD269C021890071
:100FC0000A43DA610B4B962292011A60094B002208
:100FD0001A71084B00225A71064B08229A71064B6F
:100FE000181C8021FFF7AAFABD4680BD00F2FF1F42
:100FF00000B0044004F7FF1F0CF7FF1F80B500AFDF
:101000002C4B1B78DBB21A1C0223134019D02A4A3E
:1010100029499423CB5CDBB202210B43D9B2942340
:10102000D154264B00221A70254B01221A70FFF76B
:10103000BBFF204B1B78DBB202229343DAB21D4B7D
:101040001A701E4B1B78202B13D0222B2AD0002B7A
:101050002ED1C0461B4B1B78012BFBD1184B1B78A4
:10106000002B02D0164B00221A70144B00221A706B
:101070001EE0154B1B781A1C0123134011D0124B94
:101080001B7801229343DAB20F4B1A700F4B0020EA
:10109000191CFFF7EFFB002000210022FFF702FBE5
:1010A00006E005E0002000210022FFF7FBFAC04621
:1010B000BD4680BD01F2FF1F0020074000F2FF1F68
:1010C00050F0FF1F7CF5FF1F14F5FF1F04F7FF1FF3
:1010D00080B582B000AFFB1D00221A70214B1B6847
:1010E0005B78212B11D004DC0A2B07D0202B13D0E6
:1010F00031E0222B17D0AA2B1CD02CE01A4B002059
:10110000191C0122FFF7CEFA25E0184B0020191C0C
:101110000722FFF7C7FA1EE0154B20221A70FB1DAD
:1011200001221A7017E0124B22221A70FB1D0022B6
:101130001A7010E00F4B181C8021FFF7FFF90E4BBF
:101140001B78802252421343DAB20B4B1A70094BC0
:10115000FF221A70C046FB1D1B78181CBD4602B04A
:1011600080BDC04644F4FF1F15F5FF1F04F7FF1FA5
:1011700000F2FF1F0CF7FF1F14F5FF1F80B500AF33
:10118000164B164A5268802149040A435A60134B91
:10119000124A1268802109060A431A600F4B0F4A4F
:1011A00052688021C9040A435A600C4B0B4A1268EA
:1011B0008021C9050A431A60084B084A52688021F9
:1011C00089040A435A60054B044A12688021890544
:1011D0000A431A60FFF7E8FEBD4680BD0070044078
:1011E00080B584B000AF786001235B42FB60FFF7FD
:1011F00005FF144B1B781A1C082313401DD0032035
:10120000FFF774FB104A62232021D1520E4A60235B
:101210008021D1540B4B1B7808229343DAB2094B3F
:101220001A700A4B0220191C0122FFF73BFA074BE8
:101230001A787B681A700123FB60FB68181CBD4696
:1012400004B080BD14F5FF1F00F6FF1FC4F6FF1F9A
:1012500080B582B000AF78607A680B4B9A4201D9B2
:1012600001230CE0094B7A681202120A013A5A6013
:10127000064B00229A60054B07221A600023181CB7
:10128000BD4602B080BDC046FFFFFF0010E000E099
:1012900080B582B000AF00F03DFA124B7B60124B7C
:1012A0003B6007E03B681A1D3A607A68111D79605F
:1012B00012681A603A680D4B9A42F3D30C4B3B60AC
:1012C00004E03B681A1D3A6000221A603A68094B34
:1012D0009A42F6D3084B181CFFF7BAFF00F0B4F996
:1012E000FEE7C0467418000000F0FF1F54F0FF1F17
:1012F00000F2FF1F8CF7FF1F80BB000080B500AF1E
:1013000000F03AFABD4680BD80B500AFFFF7EAFDB8
:10131000BD4680BD80B500AFFEE7C04680B582B057
:1013200000AF204A88235B010021D1501D4A1D498E
:101330001D4BCB588021C90019431B4BD1501B4B6F
:10134000802252001A601A4B01229A60184B184AE8
:10135000526901210A435A61124A1249124BCB5871
:10136000802149011943104BD150124B8022520069
:101370005A61114B20225A600F4B0F4A52692021AB
:101380000A435A6100F004FA031C7B60C04600F077
:10139000FFF9021C7B68D31A042BF8D9BD4602B0B2
:1013A00080BDC046007004403810000000A004401A
:1013B00040F00F4000C00440C0F00F4080B500AFC7
:1013C000444A4449444BCB58802109011943424BBC
:1013D000D150424B802292001A61404B80229200F1
:1013E0005A613E4B802292009A613C4B80229200CF
:1013F000DA613B4B3A4A526940210A435A61354A05
:101400003449384BCB588021C9031943354BD1504F
:10141000354B1222DA70344B334A9278D2B2102113
:101420000A43D2B29A70304B21225A702E4B2E4A68
:10143000D278D2B240210A43D2B2DA70254A254985
:101440002A4BCB5802211943284BD150214A21491C
:1014500082235B01CB5880214900194382235B0121
:10146000D150234B224A1278D1B240220A40D2B244
:101470001A701F4B1E4A1278D2B2702149420A4399
:10148000D2B21A701A4B1A4A5278D1B240220A408C
:10149000D2B25A70164B164A5278D2B26F214942D4
:1014A0000A43D2B25A70134A80235B001249D150CA
:1014B000104A86235B001149D1500E4A8A235B00F3
:1014C0000D49D1500B4A8E235B000D49D150BD46CA
:1014D00080BDC046007004403810000000B00440D9
:1014E00080F00F4034100000006007403C10000006
:1014F00000100240008000400660074080001A6033
:101500008000526080B584B000AFF860B9607A6046
:10151000C046354A84235B00D25880239B04134085
:10152000F7D1C046304A8C235B00D25880239B04FD
:101530001340F7D12C4A84235B0080214904D15009
:10154000294A8C235B0080214904D150264AF9683E
:1015500088235B00D150244A7B681B02190A8C2324
:101560005B00D150204A20498E235B00CB5880215C
:10157000C90519438E235B00D150BB68002B16D0E0
:10158000194AB96882235B00D150174A7B681B0255
:10159000190A84235B00D150134A134986235B0048
:1015A000CB588021C905194386235B00D1500F4BCE
:1015B0000E4A9278D2B204210A43D2B29A70C0463F
:1015C000094A84235B00D25880239B041340F7D13F
:1015D000C046054A8C235B00D25880239B041340ED
:1015E000F7D1BD4604B080BD0080004000600740D8
:1015F00080B582B000AF78607B68002B03D0054BCC
:1016000020225A6002E0034B20229A60BD4602B0BD
:1016100080BDC046C0F00F4080B500AF00F0B8F804
:10162000021C074B1B68D31AFA2B07D900F0B0F83D
:10163000021C034B1A60034B0122DA60BD4680BDD9
:1016400004F2FF1F40F00F4080B582B000AF3B1D99
:1016500007221A70FB1C00221A70FFF75FFEFFF7CB
:10166000ADFE3A1DFB1C101C191C0122FFF74AFF9E
:101670000A4A0B4B101C191C00F032F800F040F81D
:10168000FFF77CFDFFF7C8FFBB1C181CFFF7A8FD88
:10169000031C013300D0C046F4E7C0460515000026
:1016A000F115000080B500AF0A4B07221A72094AF3
:1016B00029230021D154074B1B680749074A081CFE
:1016C000111C01229847034A2923D35C181CBD46EC
:1016D00080BDC04608F2FF1F10F2FF1F31F2FF1F4E
:1016E00080B582B000AF78603960044B7A681A60C8
:1016F000024B3A685A60BD4602B080BD08F2FF1F37
:1017000080B500AFFFF7CEFF031C0E2B00D0C04604
:10171000BD4680BD80B500AF124B124AD278D1B21F
:101720001F220A40D2B2602149420A43D2B2DA7083
:101730000D4A0D490D4BCB58E0218B4340211943F5
:101740000A4BD150084A0849094BCB58802109015E
:101750001943074BD150074BA822D200DA60BD468F
:1017600080BDC046004006400070044004100000E8
:101770003810000000B0044080B500AF034B1B6878
:101780005A1C024B1A60BD4680BDC04654F2FF1F72
:1017900080B500AF024B1B68181CBD4680BDC0461B
:1017A00054F2FF1F1201100102000020A2150FA524
:1017B00000000102030100000403090414034600B1
:1017C0007200650065007300630061006C006500D5
:1017D00012035500530042002D00550041005200F5
:1017E00054000000120354004500530054005F00F1
:1017F00031002E003000000009024300020100C049
:101800003209040000010202010105240010010553
:1018100024010001042402000524060001070581BB
:101820000320000209040100020A000001070582EA
:1018300002200000070503022000000020202020D5
:10184000202020202020202020202020A00A00006E
:10185000B40A0000B40A0000B40A0000B40A000090
:10186000E0090000F2090000B40A0000920A00003A
:04187000520A000018
:10187400B0F4FF1F5CF5FF1F3CF5FF1F84F6FF1F4C
:1018840048F4FF1F24F4FF1F90F4FF1FF4F4FF1F1C
:10189400E4F6FF1F18F5FF1F6CF4FF1F80F5FF1F10
:1018A400C4F6FF1F00F4FF1FA4F6FF1FD4F4FF1FAC
:1018B400B8170000BC170000D0170000E4170000A0
:0418C400010000001F
:0400000300000410E5
:00000001FF
