:1000000020F4FF1F79040000F1040000F104000057
:1000100000000000000000000000000000000000E0
:10002000000000000000000000000000F1040000DB
:100030000000000000000000F1040000E5040000E2
:10004000F1040000F1040000F1040000F1040000DC
:1000500000000000F1040000F1040000F1040000C1
:10006000F1040000F1040000F1040000F1040000BC
:10007000F1040000F1040000F1040000F1040000AC
:10008000F1040000F1040000F1040000F10400009C
:10009000F1040000F1040000F10400000000000081
:1000A000F1040000F1040000F1040000F10400007C
:1000B000F104000000000000F1040000F104000061
:10040000FFFFFFFFFFFFFFFFFFFFFFFFFEFFFFFFFD
:1004100080B584B000AF786000F094FA031CFB60F4
:10042000C04600F08FFA021CFB68D21A7B689A4221
:10043000F7D3BD4604B080BD80B582B000AF786010
:100440007A680B4B9A4201D901230CE0094B7A6878
:100450001202120A013A5A60064B00229A60054BBA
:1004600007221A600023181CBD4602B080BDC0469A
:10047000FFFFFF0010E000E080B582B000AF00F0A9
:1004800023FA124B7B60124B3B6007E03B681A1D5E
:100490003A607A68111D796012681A603A680D4BEB
:1004A0009A42F3D30C4B3B6004E03B681A1D3A6060
:1004B00000221A603A68094B9A42F6D3084B181C7E
:1004C000FFF7BAFF00F0F4F9FEE7C0465809000054
:1004D00000F0FF1F04F0FF1F04F0FF1F1CF0FF1FC0
:1004E00080BB000080B500AF00F020FABD4680BDA3
:1004F00080B500AFFEE7C04680B500AF0E4A882346
:100500005B010021D1500C4A0B490C4BCB58802188
:10051000C9001943094BD150094B802252001A607F
:10052000084B01229A60074B064A526901210A438F
:100530005A61BD4680BDC0460070044038100000BE
:1005400000A0044040F00F4080B584B000AF021C12
:10055000FB1D1A700023BB603B1C0F3300221A7076
:100560001CE0FB1D1B785BB2002B04DABB68062283
:100570001343BB6003E0BB6804221343BB60FA1D56
:10058000FB1D1B78DB181370BB68DB00BB603B1CDA
:100590000F331A783B1C0F3301321A703B1C0F3398
:1005A0001B78072BDDD9BB68DB08181CBD4604B0DF
:1005B00080BDC04680B582B000AF78603960C0466B
:1005C0001E4A84235B00D25880239B041340F7D13A
:1005D0001B4B802252009A611A4B40229A600120E4
:1005E000FFF716FF154A84235B0080214904D15090
:1005F000124A796880235B00D150104A3B681B0285
:10060000190A84235B00D1500C4A0C4986235B00F5
:10061000CB588021C905194386235B00D150084B74
:10062000802292009A61084B074A9278D2B2202128
:100630000A43D2B29A70BD4602B080BD008000402D
:1006400000B0044080F00F400060074080B500AF6C
:10065000374A3749374BCB58802109011943354B6D
:10066000D150354B802292001A61334B8022920088
:100670005A61314B802292009A61304B2F4A526965
:1006800040210A435A612A4A29492D4BCB588021DF
:10069000C90319432A4BD1502A4B2A4AD278D2B2E5
:1006A0001A210A43D2B2DA70264B264A9278D2B285
:1006B00010210A43D2B29A70224B21225A70214B48
:1006C000204AD278D2B240210A43D2B2DA70184A14
:1006D00017491D4BCB58022119431B4BD150144ACB
:1006E000134982235B01CB5880214900194382239F
:1006F0005B01D150154B154A1278D1B240220A4005
:10070000D2B21A70114B114A1278D2B26F214942FB
:100710000A43D2B21A700E4A82235B000D49D150AF
:100720000B4A86235B000C49D150BD4680BDC046B4
:10073000007004403810000000B0044080F00F400A
:1007400034100000006007403C1000000010024020
:1007500000800040066007408000526080B582B093
:1007600000AF384B1B68DBB2181CFFF7EDFE031C13
:100770007B607B68DAB2344B9A707B681B0ADAB212
:10078000314B5A707B681B0CDAB22F4B1A702D4B11
:100790001B681B0ADBB2181CFFF7D6FE031C7B602C
:1007A0007B68DAB2284B5A717B681B0ADAB2264B97
:1007B0001A717B681B0CDAB2234BDA70214B1B6871
:1007C0001B0CDBB2181CFFF7BFFE031C7B607B68B1
:1007D000DAB21D4B1A727B681B0ADAB21A4BDA7155
:1007E0007B681B0CDAB2184B9A71184B1B780133DB
:1007F000172B04DC154B1B780133DBB200E0002320
:10080000124A1370114B1B78FF22111C99400B1CCC
:100810001A1C0C4B1A600D4B1B78103BFF22111C4D
:1008200019410B1C1A1CFF231A40064B1B681A4364
:10083000044B1A60044B181C0921FFF7BBFEBD4690
:1008400002B080BD00F0FF1F04F0FF1F0DF0FF1F7E
:1008500080B500AF00F076F8021C074B1B68D31A76
:10086000FA2B07D900F06EF8021C034B1A60034BF9
:100870000122DA60BD4680BD10F0FF1F40F00F403E
:1008800080B500AF00F05EF8021C084B1B68D21A5E
:10089000FA235B009A4206D900F054F8021C034B7D
:1008A0001A60FFF75BFFBD4680BDC04614F0FF1F16
:1008B00080B500AFFFF720FEFFF7C8FEFFF7C8FFC7
:1008C000FFF7DEFFFAE7C04680B500AF124B124AD1
:1008D000D278D1B21F220A40D2B2602149420A43E3
:1008E000D2B2DA700D4A0D490D4BCB58E0218B4343
:1008F000402119430A4BD150084A0849094BCB58AB
:10090000802109011943074BD150074BA822D2007F
:10091000DA60BD4680BDC04600400640007004401D
:10092000041000003810000000B0044080B500AF93
:10093000034B1B685A1C024B1A60BD4680BDC04663
:1009400018F0FF1F80B500AF024B1B68181CBD4696
:0809500080BDC04618F0FF1F36
:04095800FF0000009C
:0400000300000410E5
:00000001FF
